{
  "_format": "hh-sol-artifact-1",
  "contractName": "Splitwise",
  "sourceName": "contracts/mycontract.sol",
  "abi": [
    {
      "inputs": [
        {
          "internalType": "address",
          "name": "creditor",
          "type": "address"
        },
        {
          "internalType": "uint32",
          "name": "amount",
          "type": "uint32"
        },
        {
          "internalType": "address[]",
          "name": "path",
          "type": "address[]"
        },
        {
          "internalType": "uint32",
          "name": "deductAmount",
          "type": "uint32"
        }
      ],
      "name": "add_IOU",
      "outputs": [],
      "stateMutability": "nonpayable",
      "type": "function"
    },
    {
      "inputs": [
        {
          "internalType": "address",
          "name": "debtor",
          "type": "address"
        },
        {
          "internalType": "address",
          "name": "creditor",
          "type": "address"
        }
      ],
      "name": "lookup",
      "outputs": [
        {
          "internalType": "uint32",
          "name": "ret",
          "type": "uint32"
        }
      ],
      "stateMutability": "view",
      "type": "function"
    }
  ],
  "bytecode": "0x608060405234801561001057600080fd5b50610aa1806100206000396000f3fe608060405234801561001057600080fd5b50600436106100365760003560e01c8063713584a61461003b5780637a8790b41461006b575b600080fd5b61005560048036038101906100509190610723565b610087565b6040516100629190610782565b60405180910390f35b6100856004803603810190610080919061082e565b61011d565b005b60008060008473ffffffffffffffffffffffffffffffffffffffff1673ffffffffffffffffffffffffffffffffffffffff16815260200190815260200160002060008373ffffffffffffffffffffffffffffffffffffffff1673ffffffffffffffffffffffffffffffffffffffff16815260200190815260200160002060009054906101000a900463ffffffff16905092915050565b8473ffffffffffffffffffffffffffffffffffffffff163373ffffffffffffffffffffffffffffffffffffffff160361015557600080fd5b60008163ffffffff16148061016d5750600183839050145b1561022f57836000803373ffffffffffffffffffffffffffffffffffffffff1673ffffffffffffffffffffffffffffffffffffffff16815260200190815260200160002060008773ffffffffffffffffffffffffffffffffffffffff1673ffffffffffffffffffffffffffffffffffffffff16815260200190815260200160002060008282829054906101000a900463ffffffff1661020c91906108e5565b92506101000a81548163ffffffff021916908363ffffffff1602179055506106b4565b828260008181106102435761024261091d565b5b9050602002016020810190610258919061094c565b73ffffffffffffffffffffffffffffffffffffffff168573ffffffffffffffffffffffffffffffffffffffff161461028f57600080fd5b82826001858590506102a19190610983565b8181106102b1576102b061091d565b5b90506020020160208101906102c6919061094c565b73ffffffffffffffffffffffffffffffffffffffff163373ffffffffffffffffffffffffffffffffffffffff16146102fd57600080fd5b8063ffffffff16846000803373ffffffffffffffffffffffffffffffffffffffff1673ffffffffffffffffffffffffffffffffffffffff16815260200190815260200160002060008873ffffffffffffffffffffffffffffffffffffffff1673ffffffffffffffffffffffffffffffffffffffff16815260200190815260200160002060009054906101000a900463ffffffff1661039b91906108e5565b63ffffffff1610156103ac57600080fd5b60005b6001848490506103bf9190610983565b8110156105ef5760008060008686858181106103de576103dd61091d565b5b90506020020160208101906103f3919061094c565b73ffffffffffffffffffffffffffffffffffffffff1673ffffffffffffffffffffffffffffffffffffffff1681526020019081526020016000206000868660018661043e91906109b7565b81811061044e5761044d61091d565b5b9050602002016020810190610463919061094c565b73ffffffffffffffffffffffffffffffffffffffff1673ffffffffffffffffffffffffffffffffffffffff16815260200190815260200160002060009054906101000a900463ffffffff1690508263ffffffff168163ffffffff1610156104c957600080fd5b826000808787868181106104e0576104df61091d565b5b90506020020160208101906104f5919061094c565b73ffffffffffffffffffffffffffffffffffffffff1673ffffffffffffffffffffffffffffffffffffffff1681526020019081526020016000206000878760018761054091906109b7565b8181106105505761054f61091d565b5b9050602002016020810190610565919061094c565b73ffffffffffffffffffffffffffffffffffffffff1673ffffffffffffffffffffffffffffffffffffffff16815260200190815260200160002060008282829054906101000a900463ffffffff166105bd91906109eb565b92506101000a81548163ffffffff021916908363ffffffff1602179055505080806105e790610a23565b9150506103af565b5080846105fc91906109eb565b6000803373ffffffffffffffffffffffffffffffffffffffff1673ffffffffffffffffffffffffffffffffffffffff16815260200190815260200160002060008773ffffffffffffffffffffffffffffffffffffffff1673ffffffffffffffffffffffffffffffffffffffff16815260200190815260200160002060008282829054906101000a900463ffffffff1661069591906108e5565b92506101000a81548163ffffffff021916908363ffffffff1602179055505b5050505050565b600080fd5b600080fd5b600073ffffffffffffffffffffffffffffffffffffffff82169050919050565b60006106f0826106c5565b9050919050565b610700816106e5565b811461070b57600080fd5b50565b60008135905061071d816106f7565b92915050565b6000806040838503121561073a576107396106bb565b5b60006107488582860161070e565b92505060206107598582860161070e565b9150509250929050565b600063ffffffff82169050919050565b61077c81610763565b82525050565b60006020820190506107976000830184610773565b92915050565b6107a681610763565b81146107b157600080fd5b50565b6000813590506107c38161079d565b92915050565b600080fd5b600080fd5b600080fd5b60008083601f8401126107ee576107ed6107c9565b5b8235905067ffffffffffffffff81111561080b5761080a6107ce565b5b602083019150836020820283011115610827576108266107d3565b5b9250929050565b60008060008060006080868803121561084a576108496106bb565b5b60006108588882890161070e565b9550506020610869888289016107b4565b945050604086013567ffffffffffffffff81111561088a576108896106c0565b5b610896888289016107d8565b935093505060606108a9888289016107b4565b9150509295509295909350565b7f4e487b7100000000000000000000000000000000000000000000000000000000600052601160045260246000fd5b60006108f082610763565b91506108fb83610763565b9250828201905063ffffffff811115610917576109166108b6565b5b92915050565b7f4e487b7100000000000000000000000000000000000000000000000000000000600052603260045260246000fd5b600060208284031215610962576109616106bb565b5b60006109708482850161070e565b91505092915050565b6000819050919050565b600061098e82610979565b915061099983610979565b92508282039050818111156109b1576109b06108b6565b5b92915050565b60006109c282610979565b91506109cd83610979565b92508282019050808211156109e5576109e46108b6565b5b92915050565b60006109f682610763565b9150610a0183610763565b9250828203905063ffffffff811115610a1d57610a1c6108b6565b5b92915050565b6000610a2e82610979565b91507fffffffffffffffffffffffffffffffffffffffffffffffffffffffffffffffff8203610a6057610a5f6108b6565b5b60018201905091905056fea2646970667358221220ad639545c1dece78f9d51c936c6313df0455abccc83d4dc464bab48d3f2a17d364736f6c63430008110033",
  "linkReferences": {},
  "deployedLinkReferences": {}
}